:020000040800F2
:10000000980600208901000891010008930100086A
:100010009501000897010008990100080000000000
:100020000000000000000000000000009B0100082C
:100030009D010008000000009F010008C5040008A1
:10004000A3010008A3010008A3010008A301000800
:10005000A3010008A3010008A3010008A3010008F0
:10006000A3010008A3010008A3010008A3010008E0
:10007000A3010008A3010008A3010008A3010008D0
:10008000A3010008A3010008A3010008A3010008C0
:10009000A3010008A3010008A3010008A3010008B0
:1000A000A30100089D050008A3010008A3010008A2
:1000B000B9050008D5050008F1050008A3010008EE
:1000C000A3010008A3010008A3010008A301000880
:1000D000A3010008A3010008A3010008A301000870
:1000E000A3010008A3010008A301000800F002F822
:1000F00000F03AF80AA090E8000C82448344AAF188
:100100000107DA4501D100F02FF8AFF2090EBAE885
:100110000F0013F0010F18BFFB1A43F0010318473B
:10012000EC0E00000C0F0000103A24BF78C878C114
:10013000FAD8520724BF30C830C144BF04680C60ED
:10014000704700000023002400250026103A28BF35
:1001500078C1FBD8520728BF30C148BF0B60704739
:100160001FB51FBD10B510BD00F031F81146FFF7E7
:10017000F7FF00F015FB00F04FF803B4FFF7F2FFB4
:1001800003BC00F057F800000948804709480047C1
:10019000FEE7FEE7FEE7FEE7FEE7FEE7FEE7FEE737
:1001A000FEE7FEE704480549054A064B7047000094
:1001B00045050008ED000008980000209806002082
:1001C00098020020980200207047704770477546DB
:1001D00000F02CF8AE4605006946534620F00700B3
:1001E000854618B020B5FFF7DDFFBDE820404FF091
:1001F00000064FF000074FF000084FF0000BAC4630
:10020000ACE8C009ACE8C009ACE8C009ACE8C0097A
:1002100021F007018D46704710B50446AFF300800A
:100220002046BDE81040FFF7A8BF00000048704717
:100230000800002001491820ABBEFEE7260002009E
:100240007047000010B540F6000CC4F2010C604588
:100250000ED041F2000CC4F2010C60450BD040F608
:10026000004CC4F2010C604511D14FF0080C04E0C1
:100270004FF0040C01E04FF0100C41F2180EC4F2E4
:10028000020EDEF8004044EA0C04CEF800400729D4
:1002900001D8890003E0083989B2890004304FF0A1
:1002A0000F0CD0F800E00CFA01F42EEA040404600C
:1002B0008A4041F0020103FA01F103681143194336
:1002C000016010BD8068C84000F001007047000068
:1002D00022B1012A18BF70470C3000E0143001220F
:1002E000036802FA01F119430160704770B540F2EA
:1002F0006801C2F200010A8840F26A0302440A80DF
:10030000C2F2000311B219221D7800FB0211461B34
:100310001870084600F073FC044670B20D4600F0F9
:100320006EFC0023C3F6E073002200F07FFC22463F
:100330002B4600F08DFB00F033FC70BD80B500F063
:1003400001F880BD82B041F204000021C4F2020035
:100350000191009150F8041C41F4803140F8041CD4
:1003600050F8041C01F40031009101990131019110
:10037000009919B90199B1F5A06FF1D150F8041C99
:10038000890354BF0021012100910099012936D130
:1003900042F20001C4F202010A6842F010020A604F
:1003A0000A6822F007020A600A6842F002020A6044
:1003B0000168016001680160016841F480610160C9
:1003C000016821F47C110160016841F4E8110160C9
:1003D00050F8041C41F0807140F8041C50F8041CD3
:1003E0008901FBD5016821F003010160016841F03A
:1003F00002010160016801F00C010829FAD102B084
:100400007047000080B541F20400C4F2020050F8C9
:10041000041C41F4803140F8041C00BF50F8041C57
:100420008903FBD5826942F2000142F08052C4F296
:10043000020182610A6842F012020A600A689206AA
:10044000FCD5016841F4E01141F48061016001686C
:1004500041F48031016050F8041C41F0807140F893
:10046000041C00BF50F8041C8901FBD5016841F051
:100470000201016001680907FCD500F063F800F093
:1004800029F840F20000C2F20000006844F6D3519F
:10049000C1F26201A0FB0101880900F001F880BDF2
:1004A000B0B501380024B4EB106F18BFB0BD4EF2E8
:1004B0001005CEF20005686000F048F90720AC6036
:1004C0002860B0BD40F26C00C2F20000016801314A
:1004D0000160704741F20400C4F20200016801F0BB
:1004E0000C01082941F20021C0F27A0117D10268FB
:1004F0000368C2F38342DB0302F1020205D440F633
:100500000011C0F23D01514309E003689B0301D48F
:10051000514304E040F60011C0F23D01514340F266
:100520000002C2F200021160006840F6FC71C0F3E4
:100530000310C0F60001085C116821FA00F0106099
:100540007047000080B541F20000C4F2020001686B
:10055000002241F0010101604168CFF6FF02114025
:10056000416001684FF6FF72CFF6F66211400160FC
:10057000016821F480210160416821F4FE0141609D
:100580004FF41F018160FFF7D9FE4EF60850CEF2FE
:1005900000004FF00061016080BD000080B542F6B0
:1005A0001040C4F20100018821F0010120F8101967
:1005B00000F02CF880BD000080B51020C4F20000CF
:1005C000018821F0010101804FF0804000F01EF809
:1005D00080BD000080B540F21040C4F200000188E8
:1005E00021F0010120F8101900F010F880BD000082
:1005F00080B540F61000C4F20000018821F001012E
:1006000020F8101900F002F880BD000070470000CB
:1006100010B540F2FF7CC4F2000C604541F21C0CA6
:10062000C4F2020C0DDCB0F1804F27D040F2004E36
:10063000C4F2000E70452CD1DCF8004044F00204F6
:1006400025E040F6000EC4F2000E70451BD042F6C5
:10065000004EC4F2010E70451BD15CF804EC4EF460
:10066000006E4CF804EC42F6444EC4F2010EBEF8A3
:10067000004044F40044AEF800400AE0DCF80040DA
:1006800044F0010403E0DCF8004044F00404CCF83A
:1006900000405CF8044C013A44F001044CF8044C6E
:1006A00002855A1E0139828500220329828425D8B9
:1006B000DFE801F0020A1119018C602241F001010A
:1006C000018400F1180116E0018C41F01001018451
:1006D00000F118010DE0018C602241F48071018469
:1006E00000F11C0107E0018C41F48051018400F10C
:1006F0001C014FF4C0420B881A430A80018841F064
:1007000001010180018AC907FCD010BD4B1EB0F861
:100710002CC0032B88BF70470CFB02F148F21F521C
:10072000C5F2EB12A1FB02125209DFE803F0020B43
:1007300005083430028070473C30028070474030FA
:100740000280704738300280704700004EF6235018
:10075000CEF20000F02101707047000010B500F0EB
:10076000E5F8FFF7C3FD46F26761C6F2666180FBFC
:100770000101881000EBD170C0F11E041E30C2B21E
:1007800040F27400C2F20000012100F097F840F23C
:100790008400E2B2C2F20000012100F08FF810BD27
:1007A00082B0FFF72FFE40F60008C4F20108404671
:1007B0000221002202234FF00209FFF743FD4046C9
:1007C000032100220223FFF73DFD404604210022C1
:1007D0000223FFF737FD4046052100220223FFF7E1
:1007E00031FD4046062100220223FFF72BFD40F297
:1007F000840408F5806708F51056C2F2000401254C
:10080000204639460E223346009500F085F840F226
:100810007405C2F20005284639460F223346CDF84A
:10082000009000F079F8A068A18948224FF47A730B
:10083000FFF7EEFEA868A98948224FF47A73FFF704
:10084000E7FE4046082103220223FFF7FBFC38465F
:100850000E2103220023FFF7F5FC40460921032265
:100860000223FFF7EFFC38460F2103220023FFF796
:10087000E9FC28460021162200F020F8204600213D
:10088000262200F01BF840F27006C2F2000609E0D2
:1008900028460021002200F011F820460021002205
:1008A00000F00CF800F042F83070411DC0B2EFD0FB
:1008B0000528EDD0FFF752FFF4E70000B0B515466C
:1008C000022904460FD001291AD0002918BFB0BD53
:1008D0002068A1880022FFF7FBFCA068A189002204
:1008E000FFF714FFB0BD2068A1880122FFF7F0FCDC
:1008F000A068A189C5F1640292B2FFF707FFB0BDFD
:100900002068A1880022FFF7E3FCA068A1892A469D
:10091000FFF7FCFEB0BD0000DDF800C00160002163
:1009200082808360A0F80CC0C18170472DE9F0433C
:1009300081B040F60004C4F2010420460221FFF712
:10094000C1FC804620460321FFF7BCFC81462046BF
:100950000421FFF7B7FC0646204605210525FFF7D1
:10096000B1FC074620460621FFF7ACFC88F00101E8
:1009700089F00103194308BF012E18D049EA080580
:1009800045EA060454EA070C08BF012814D087F092
:100990000102144308BF012810D0B4FA84F2B0FA5F
:1009A00080F45209640922420AD002254CE0012F4A
:1009B000E4D1012848D0E1E7042545E0032543E0E0
:1009C00086F00102154308BF012F0AD00743B5FA8C
:1009D00085F2B7FA87F552096D092A4205D000253C
:1009E00032E00028F2D101252EE053EA080308BFC7
:1009F000012E0BD0B3FA83F247EA0603B3FA83F36E
:100A000052095B091A4205D0FE251DE0002FF1D1E5
:100A1000FF2519E0B1FA81F14909194201D0FD25FC
:100A200012E0B8F1010F04BF47EA090151EA0601DB
:100A300009D050EA0C004FF0000008BF6FF004002E
:100A400001B0BDE8F083FC2568B201B0BDE8F083D9
:100A500010B591EA030F48BF83F0004300F1EC8129
:100A6000841A71EB030C05D2121943EB0C03001B23
:100A700061EB0C014FEA1154A4EB135CDFF81CE1AD
:100A80001EEA430F18BF9EEA445F73D021EA045167
:100A900023EA0E0343F48013DCF1200E32D322FA52
:100AA0000CFE10EB0E0023FA0CFE41EB0E01CCF114
:100AB000200E03FA0EFE10EB0E00CCF1200E51F1C9
:100AC0000001B1F5801F32D201EB045112FA0EF28F
:100AD000BDE8104058BF7047401C38BF5FEA420273
:100AE00018BF7047002814BF20F0010041F1000139
:100AF0004FEA410313F5001F38BF7047A1F1C04111
:100B000000F08CB9012A43EB0302ACF1200CDCF1BC
:100B10001F0E32BF4FF0000E23FA0CF310EB030050
:100B200041EB0451B4EB115FD0D0A1EB045101F5BE
:100B30008011490801EB04515FEA30000ED350F1F7
:100B4000000038BF12FA0EFE08D1BDE81040C9E718
:100B5000401C38BF5FEA4202CAD1C3E7BDE810407B
:100B60004FEA410313F5001F38BF7047A1F1C041A0
:100B700000F054B99EEA445F08D011EA5E0FBDE868
:100B8000104004BF01F0004100207047BDE8104054
:100B900070B500F0F5F800BF64FBBE3E0000E0FF5A
:100BA0004FEA41034FEA5353A3F58063D3F11E0389
:100BB000C8BFD3F1210C0CDD4FF0004242EAC12244
:100BC00042EA505232FA03FC8CEAE17CACEBE17071
:100BD0007047102BC4BF0020704703F5787CBCF130
:100BE000FF3F04D06FF0004282EA2100704770B5E9
:100BF00000F0C6F84992248000207047F2E710F018
:100C0000004248BF4042B0FA80F310FA03F10AD024
:100C1000C3F11D0303F5806302EB03524FEA415019
:100C200002EBD12170474FF00000704770B5DFF83C
:100C300048C11CEA111E1EBF1CEA13159EEA0C0FC8
:100C400095EA0C0F00F06F8081EA03044EEAD47E2F
:100C5000AE4421EA4C1123EA4C1341F4801143F4D1
:100C60008013AEF17F7EA1FB024CA0FB0365361919
:100C700055EB0C05A1FB034C4CF10003A0FB021C3F
:100C800016EB0C06654153F10003094218BF46F00C
:100C9000010613F4007F0BD14FEA03314FEA053010
:100CA00041EA155140EA165034036FF003020AE09E
:100CB0004FEAC3214FEAC52041EA555140EA565058
:100CC000F4026FF0020202EB2E4201EB025585EABC
:100CD000CE710AD05FEA440C18BF24F0004450F1F2
:100CE000000041F1000120EAD47040F2FE7C624530
:100CF00000D270BDA84214BF4FF080444FF0404472
:100D0000002E08BF0024BEF1806FA8BFA1F1C04132
:100D1000BDE8704080F2828001F1C04101F00041E5
:100D20004FF0000070470CEA13159EEA0C0F18BF35
:100D300095EA0C0F06D081EA030E4FF000000EF08A
:100D4000004170BD00F01CF88900013E00F007B8BA
:100D500000F009B84FEA430C5FEA5C5C08D081EA16
:100D6000030100F05BB84FEA410C5FEA5C5CF6D12E
:100D700002494FF0000070470000FF070000F87FB5
:100D80000EF1020E2EF0030E5EF8046B364205D40F
:100D9000012A43EB030515F5001F12D8012841EB8A
:100DA000010C1CF5001F0CD80ED14FEAD17C0CEBC6
:100DB0004C0C0CF1020C15F5001F08BF4CEBD37C5A
:100DC00004E04FF0080C01E04FEAD37C0CEB4C053B
:100DD00026FA05F606F00706B6F1040C06D20EEB6D
:100DE000860CBDE870404CF0010C6047DFE80CF069
:100DF000090B02024FF00041A1F500214FF0000065
:100E000070BD19461046012851EB010418BFD4F5F6
:100E1000001484BF002001F0004170BD0808A0F557
:100E200000114FEA3101704710B591EA030F48BF36
:100E300083F000433FF514AE841A71EB030C07D224
:100E40008CF0004C121943EB0C03001B61EB0C01FE
:100E50004FEA1154A4EB135CDFF89CE11EEA430F48
:100E600018BF9EEA445F00F0B08021EA045123EAF3
:100E70006E035242C3EB6E0338BF5B1EDCF1200EE3
:100E800025D322FA0CFE10EB0E0043FA0CFE41EBC8
:100E90000E01CCF1200E03FA0EFE10EB0E00CCF189
:100EA000200E51F1000129D401EB045112FA0EF287
:100EB000BDE8104058BF7047401C1CBFB2F1004F46
:100EC000704700280CBF491C20F00100704712EB4E
:100ED000020E43EB030218BF4FF0010E4EEA42022E
:100EE000ACF1200CDCF11E0E54D943FA0CFE10EBD1
:100EF0000E00CCF11E0E51F1FF31D5D50EF1010ED1
:100F000012FA0EFE404141EB010101EB445C5FEA45
:100F10005C5C10D901EB045110EBDE7038BFBEF100
:100F2000004FBDE8104018BF704700280CBF491C97
:100F300020F00100704730D24FEAD42C24F4006432
:100F400011F500111BD0B1FA81F20B3AA41AA41EBC
:100F5000D2F12003914030FA03F31943904001EBA2
:100F6000CC7101EB0451002CBDE81040A8BF7047C4
:100F700001F1C04101F000414FF000007047B0FAAC
:100F800080F310FA03F100D110BDE41A173C4805B4
:100F9000C90AE4E701EB045110BD49104FEA3000E3
:100FA00001EB0451BDE8104002E04FF00001704732
:100FB0004A0008BF0042F8D0B2F5001F28BF7047B2
:100FC00001F000414FF0000070479EEA445F07D0F7
:100FD00011EA5E0FBDE8104004BF002100207047F9
:100FE000BDE8104070B5FFF7CBFE00BF40DFF63E16
:100FF000104683F0004170470000E0FF0000000051
:101000000000000001020304060708093010000870
:101010000000002008000000280100083810000827
:1010200008000020900600004401000800000000B5
:0810300000A24A0400000000C8
:04000005080000ED02
:00000001FF
