:020000040800F2
:10000000980600208901000891010008930100086A
:100010009501000897010008990100080000000000
:100020000000000000000000000000009B0100082C
:100030009D010008000000009F01000895040008D1
:10004000A3010008A3010008A3010008A301000800
:10005000A3010008A3010008A3010008A3010008F0
:10006000A3010008A3010008A3010008A3010008E0
:10007000A3010008A3010008A3010008A3010008D0
:10008000A3010008A3010008A3010008A3010008C0
:10009000A3010008A3010008A3010008A3010008B0
:1000A000A30100086D050008A3010008A3010008D2
:1000B00089050008A5050008C1050008A30100087E
:1000C000A3010008A3010008A3010008A301000880
:1000D000A3010008A3010008A3010008A301000870
:1000E000A3010008A3010008A301000800F002F822
:1000F00000F03AF80AA090E8000C82448344AAF188
:100100000107DA4501D100F02FF8AFF2090EBAE885
:100110000F0013F0010F18BFFB1A43F0010318473B
:10012000AC090000CC090000103A24BF78C878C19F
:10013000FAD8520724BF30C830C144BF04680C60ED
:10014000704700000023002400250026103A28BF35
:1001500078C1FBD8520728BF30C148BF0B60704739
:100160001FB51FBD10B510BD00F031F81146FFF7E7
:10017000F7FF00F007FB00F04FF803B4FFF7F2FFC2
:1001800003BC00F057F800000948804709480047C1
:10019000FEE7FEE7FEE7FEE7FEE7FEE7FEE7FEE737
:1001A000FEE7FEE704480549054A064B7047000094
:1001B00015050008ED0000089800002098060020B2
:1001C00098020020980200207047704770477546DB
:1001D00000F02CF8AE4605006946534620F00700B3
:1001E000854618B020B5FFF7DDFFBDE820404FF091
:1001F00000064FF000074FF000084FF0000BAC4630
:10020000ACE8C009ACE8C009ACE8C009ACE8C0097A
:1002100021F007018D46704710B50446AFF300800A
:100220002046BDE81040FFF7A8BF00000048704717
:100230000800002001491820ABBEFEE7260002009E
:100240007047000010B540F6000CC4F2010C604588
:100250000ED041F2000CC4F2010C60450BD040F608
:10026000004CC4F2010C604511D14FF0080C04E0C1
:100270004FF0040C01E04FF0100C41F2180EC4F2E4
:10028000020EDEF8004044EA0C04CEF800400729D4
:1002900001D8890003E0083989B2890004304FF0A1
:1002A0000F0CD0F800E00CFA01F42EEA040404600C
:1002B0008A4041F0020103FA01F103681143194336
:1002C000016010BD8068C84000F001007047000068
:1002D00022B1012A18BF70470C3000E0143001220F
:1002E000036802FA01F119430160704740F26802A5
:1002F000C2F20002138801461844108040F26A02DC
:100300004B20C2F2000248431170704780B500F0E4
:1003100001F880BD82B041F204000021C4F2020065
:100320000191009150F8041C41F4803140F8041C04
:1003300050F8041C01F40031009101990131019140
:10034000009919B90199B1F5A06FF1D150F8041CC9
:10035000890354BF0021012100910099012936D160
:1003600042F20001C4F202010A6842F010020A607F
:100370000A6822F007020A600A6842F002020A6074
:100380000168016001680160016841F480610160F9
:10039000016821F47C110160016841F4E8110160F9
:1003A00050F8041C41F0807140F8041C50F8041C03
:1003B0008901FBD5016821F003010160016841F06A
:1003C00002010160016801F00C010829FAD102B0B4
:1003D0007047000080B541F20400C4F2020050F8FA
:1003E000041C41F4803140F8041C00BF50F8041C88
:1003F0008903FBD5826942F2000142F08052C4F2C7
:10040000020182610A6842F012020A600A689206DA
:10041000FCD5016841F4E01141F48061016001689C
:1004200041F48031016050F8041C41F0807140F8C3
:10043000041C00BF50F8041C8901FBD5016841F081
:100440000201016001680907FCD500F063F800F0C3
:1004500029F840F20000C2F20000006844F6D351CF
:10046000C1F26201A0FB0101880900F001F880BD22
:10047000B0B501380024B4EB106F18BFB0BD4EF218
:100480001005CEF20005686000F048F90720AC6066
:100490002860B0BD40F26C00C2F20000016801317A
:1004A0000160704741F20400C4F20200016801F0EB
:1004B0000C01082941F20021C0F27A0117D102682B
:1004C0000368C2F38342DB0302F1020205D440F663
:1004D0000011C0F23D01514309E003689B0301D4C0
:1004E000514304E040F60011C0F23D01514340F297
:1004F0000002C2F200021160006840F6BA21C0F3A7
:100500000310C0F60001085C116821FA00F01060C9
:100510007047000080B541F20000C4F2020001689B
:10052000002241F0010101604168CFF6FF02114055
:10053000416001684FF6FF72CFF6F662114001602C
:10054000016821F480210160416821F4FE014160CD
:100550004FF41F018160FFF7D9FE4EF60850CEF22E
:1005600000004FF00061016080BD000080B542F6E0
:100570001040C4F20100018821F0010120F8101997
:1005800000F02CF880BD000080B51020C4F20000FF
:10059000018821F0010101804FF0804000F01EF839
:1005A00080BD000080B540F21040C4F20000018818
:1005B00021F0010120F8101900F010F880BD0000B2
:1005C00080B540F61000C4F20000018821F001015E
:1005D00020F8101900F002F880BD000070470000FC
:1005E00010B540F2FF7CC4F2000C604541F21C0CD7
:1005F000C4F2020C0DDCB0F1804F27D040F2004E67
:10060000C4F2000E70452CD1DCF8004044F0020426
:1006100025E040F6000EC4F2000E70451BD042F6F5
:10062000004EC4F2010E70451BD15CF804EC4EF490
:10063000006E4CF804EC42F6444EC4F2010EBEF8D3
:10064000004044F40044AEF800400AE0DCF800400A
:1006500044F0010403E0DCF8004044F00404CCF86A
:1006600000405CF8044C013A44F001044CF8044C9E
:1006700002855A1E0139828500220329828425D8E9
:10068000DFE801F0020A1119018C602241F001013A
:10069000018400F1180116E0018C41F01001018481
:1006A00000F118010DE0018C602241F48071018499
:1006B00000F11C0107E0018C41F48051018400F13C
:1006C0001C014FF4C0420B881A430A80018841F094
:1006D00001010180018AC907FCD010BD4B1EB0F892
:1006E0002CC0032B88BF70470CFB02F148F21F524D
:1006F000C5F2EB12A1FB02125209DFE803F0020B74
:1007000005083430028070473C300280704740302A
:100710000280704738300280704700004EF6235048
:10072000CEF20000F02101707047000010B500F01B
:1007300015F9FFF7DBFD46F26761C6F2666180FBE3
:100740000101881000EBD170C0F1190461B21930B9
:10075000002944BF0024192041B2002944BF1924B4
:100760000020C2B240F27000C2F20000012100F08D
:10077000BDF840F28400E2B2C2F20000012100F0B4
:10078000B5F810BD82B0FFF725FE40F60008C4F2B0
:10079000010840460221002202234FF00209FFF720
:1007A00051FD4046032100220223FFF74BFD404646
:1007B000042100220223FFF745FD404605210022C7
:1007C0000223FFF73FFD4046062100220223FFF7E8
:1007D00039FD40F2840408F5806708F51056C2F22E
:1007E00000040125204639460E223346009500F0CC
:1007F000ABF840F27005C2F20005284639460F22D8
:100800003346CDF8009000F09FF8A068A1894822F7
:100810004FF47A73FFF7E4FEA868A98948224FF4E1
:100820007A73FFF7DDFE4046082103220223FFF71B
:1008300009FD38460E2103220023FFF703FD404641
:10084000092103220223FFF7FDFC38460F21032272
:100850000023FFF7F7FC28460021162200F046F897
:1008600020460021262200F041F840F28006C2F224
:10087000000609E028460021002200F037F8204653
:100880000021002200F032F800F068F8411DC0B2EB
:1008900004D00528EED0FFF749FFF5E7307848B9D6
:1008A00028460021002200F021F8204600210022E5
:1008B00000F01CF83078012809D1284601211922BE
:1008C00000F014F820460121002200F00FF83078E3
:1008D0000228D9D128460121002200F007F820463D
:1008E0000121192200F002F8CEE70000B0B515464C
:1008F000022904460FD001291AD0002918BFB0BD23
:100900002068A1880022FFF7E3FCA068A1890022EB
:10091000FFF7E4FEB0BD2068A1880122FFF7D8FCF4
:10092000A068A189C5F1640292B2FFF7D7FEB0BDFD
:100930002068A1880022FFF7CBFCA068A1892A4685
:10094000FFF7CCFEB0BD0000DDF800C00160002163
:1009500082808360A0F80CC0C18170472DE9F0430C
:1009600081B040F60004C4F2010420460221FFF7E2
:10097000A9FC804620460321FFF7A4FC81462046BF
:100980000421FFF79FFC0646204605210525FFF7B9
:1009900099FC074620460621FFF794FC88F00101E8
:1009A00089F00103194308BF012E18D049EA080550
:1009B00045EA060454EA070C08BF012814D087F062
:1009C0000102144308BF012816D0B4FA84F2B0FA29
:1009D00080F452096409224216D0022569E0012FF1
:1009E000E4D1012865D0E1E740F28000C2F20000C6
:1009F0000121017004255CE040F28000C2F2000099
:100A000001210170032554E086F00102154308BF5F
:100A1000012F0AD00743B5FA85F2B7FA87F55209D4
:100A20006D092A4205D0002543E00028F2D10125B6
:100A30003FE053EA080308BF012E0BD0B3FA83F25C
:100A400047EA0603B3FA83F552096D092A4205D035
:100A5000FE252EE0002FF1D1FF252AE0B1FA81F129
:100A60004909002B81F0010118BF0123194307D167
:100A700040F28000C2F2000002210170FD2518E062
:100A8000B8F1010F04BF47EA090151EA060109D094
:100A900050EA0C004FF0000008BF6FF0040001B0F6
:100AA000BDE8F08340F28000C2F200000221FC2584
:100AB000017068B201B0BDE8F083000000000000E2
:100AC000000001020304060708090000F00A0008FC
:100AD000000000200800000028010008F80A0008B3
:100AE00008000020900600004401000800000000FB
:080AF00000A24A04000000000E
:04000005080000ED02
:00000001FF
